:020000040800F2
:10000000B0070020890100082F1C00089D1B000874
:100010002D1C0008530300088D200008000000007C
:10002000000000000000000000000000331C000879
:10003000FF03000800000000311C0008351C000808
:10004000A3010008A3010008A3010008A301000800
:10005000A3010008A3010008A3010008A3010008F0
:10006000A3010008A3010008A3010008A3010008E0
:10007000A3010008C9030008A3010008A3010008A8
:10008000A3010008A3010008A3010008A3010008C0
:10009000A3010008A3010008A3010008A3010008B0
:1000A000A3010008A3010008A3010008A3010008A0
:1000B000A3010008A3010008A3010008A301000890
:1000C000A3010008A3010008A3010008A301000880
:1000D000A3010008A3010008A30100088120000873
:1000E000A3010008A3010008A301000800F002F822
:1000F00000F03AF80AA090E8000C82448344AAF188
:100100000107DA4501D100F02FF8AFF2090EBAE885
:100110000F0013F0010F18BFFB1A43F0010318473B
:100120003021000050210000103A24BF78C878C167
:10013000FAD8520724BF30C830C144BF04680C60ED
:10014000704700000023002400250026103A28BF35
:1001500078C1FBD8520728BF30C148BF0B60704739
:100160001FB51FBD10B510BD00F0B9F81146FFF75F
:10017000F7FF01F09DFF00F0D7F803B4FFF7F2FF9F
:1001800003BC00F0DFF80000094880470948004739
:10019000FEE7FEE7FEE7FEE7FEE7FEE7FEE7FEE737
:1001A000FEE7FEE704480549054A064B7047000094
:1001B000971C0008ED000008B0010020B0070020E7
:1001C000B0030020B0030020B2F120030AD5C2F131
:1001D000200320FA02F001FA03F321FA02F140EAC7
:1001E0000300704721FA03F04FF00001704740EA26
:1001F000010310B59B070FD1042A0DD310C808C9FD
:10020000121F9C42F8D020BA19BA884201D90120A5
:1002100010BD4FF0FF3010BD1AB1D30703D0521CF0
:1002200007E0002010BD10F8013B11F8014B1B1B2B
:1002300007D110F8013B11F8014B1B1B01D1921E95
:10024000F1D1184610BD4FF000020429C0F0128011
:1002500010F0030C00F01B80CCF1040CBCF1020F79
:1002600018BF00F8012BA8BF20F8022BA1EB0C014E
:1002700000F00DB85FEAC17C24BF00F8012B00F844
:10028000012B48BF00F8012B70474FF0000200B56A
:10029000134694469646203922BFA0E80C50A0E8A9
:1002A0000C50B1F12001BFF4F7AF090728BFA0E857
:1002B0000C5048BF0CC05DF804EB890028BF40F823
:1002C000042B08BF704748BF20F8022B11F0804F65
:1002D00018BF00F8012B704770477047704775468C
:1002E00000F02CF8AE4605006946534620F00700A2
:1002F000854618B020B5FFF755FFBDE820404FF008
:1003000000064FF000074FF000084FF0000B21F0FF
:100310000701AC46ACE8C009ACE8C009ACE8C009CC
:10032000ACE8C0098D46704710B50446AFF30080B5
:100330002046BDE81040FFF720BF0000004870478E
:100340005001002001491820ABBEFEE72600020044
:100350007047FEE730B5044600200246491E0EE015
:10036000A35C5840002345000006C0105B1C85EAD2
:100370005070DBB2C0B2082BF5D3521CD2B28A4205
:10038000EEDB30BD70B505460D4800240470856174
:10039000284601F069F84FF4E1306860284601F022
:1003A000B5F9084A002002F1320114540C54401CE3
:1003B000C0B23228F9D3BDE8704001F0F1BB0000B3
:1003C000000000203A000020014800F08BB9000036
:1003D000E800002030B590F840500124AC40C56BD7
:1003E0006C60046863604368102B036803D09960F5
:1003F0000068C26030BD9A600068C16030BD70475F
:1004000072B6FEE706490020C8610648016941F05E
:1004100004010161016941F0400101617047000080
:100420003001002000200240064A0021D161064927
:100430000A6942F002020A614861086940F040001E
:10044000086170473001002000200240044B002268
:10045000DA61044A136943F00103136101807047B4
:10046000300100200020024014480022C168CB0661
:10047000134904D5CA6942F00202CA611022C36856
:100480005B0705D5CB6943F00103CB6142F0040261
:10049000C369DB0707D0CB6943F00403CB61C169B3
:1004A00021F00101C161A2F58071013901D0C26062
:1004B0007047C16921F00101C1617047002002400D
:1004C0003001002070B5054600F06AFC0646114C6C
:1004D00009E0681C07D025B100F062FC801BA8422F
:1004E00001D9032070BDE068C007F2D1E068800642
:1004F00001D52020E060E068C00605D4E069C007AF
:1005000002D1E068400703D5FFF7AEFF012070BDC0
:10051000002070BD0020024030B585B00C46054675
:1005200000F0A0FA01200394CDE90105002000901D
:1005300004A9684600F0F8F9044600F049FA05B04D
:10054000204630BD10B50023521C05E030F81340A2
:100550005B1C21F8024BDBB2B3EB520FF6D310BD9C
:100560000A22FFF7EFBF2DE9F041164607460D4678
:1005700000F078FA0024761C09E02A8807EB440191
:100580000023012000F02EFA641CE4B2AD1CB4EB91
:10059000560FF2D3BDE8F04100F01ABA1FB50A2297
:1005A00001A9FFF7E0FF1FBD10B590F82110002250
:1005B000022905D00421816380F82020012010BD8C
:1005C00001680B6823F00E030B6001680B6823F0D1
:1005D00001030B6090F84030C46B012101FA03F372
:1005E000636080F8211080F82020104610BD0000C4
:1005F00010B590F821100024022903D00421816352
:1006000001243DE001680A6822F00E020A600168D8
:100610000A6822F001020A601A4A0168914201D177
:10062000012121E0174A1432914201D110211BE02F
:10063000144A2832914201D1891515E0114A3C3201
:10064000914201D189140FE00E4A5032914202D1F9
:100650004FF4803108E00B4A6432914202D14FF4EA
:10066000801101E04FF08071064A083A5160012183
:1006700080F82110002180F82010416B01B18847DB
:10068000204610BD0800024010B528B301680A6872
:1006900022F001020A6002680021116002685160C4
:1006A000026891600268D1600C4B026801241A4410
:1006B0001423B2FBF3F29300094AC0E90F239C40D4
:1006C00054608162C16201634163816380F82110DB
:1006D00080F82010002010BD012010BDF8FFFDBFE4
:1006E000000002402DE9F05FC16B0C6801680B68E7
:1006F000D0F840C0042202FA0CF2494DDFF824A1E0
:10070000494E4A4FDFF828B1DFF828E122422CD0C9
:100710005A072AD50A68920603D40A6822F004020E
:100720000A600168A94201D1042219E0514501D1B2
:10073000402215E0B14202D14FF4806210E0B9428C
:1007400002D14FF480420BE0594502D14FF4802290
:1007500006E0714502D14FF4800201E04FF0806263
:100760002F4908394A60C16A3BE04FF0020808FA95
:100770000CF818EA040F4FF000094FF0010235D0D1
:100780005FEA837832D50B689B0605D40B6823F0AB
:100790000A030B6080F821200168A94201D10222DE
:1007A00019E0514501D1202215E0B14202D14FF4A8
:1007B000007210E0B94202D14FF400520BE05945EB
:1007C00002D14FF4003206E0714502D14FF400121D
:1007D00001E04FF00072124908394A6080F8209019
:1007E000816A00291AD0BDE8F05F0847082505FA9C
:1007F0000CF5254212D01B0710D50B6823F00E0311
:100800000B6090F84010C36B02FA01F159608263EB
:1008100080F8212080F82090016BE2E7BDE8F09F8E
:10082000080002401C000240300002404400024028
:10083000580002406C00024030B528B308C8134984
:1008400014221944B1FBF2F18900C163104981639C
:10085000022141771A6843F6F0718A43D0E9001407
:100860002143D0E902452C432143046921434469D3
:10087000214384692143114319600021416301220E
:1008800042770177084630BD012030BDF8FFFDBF3B
:100890000000024070B5044690F8200000250128B1
:1008A0000CD0012084F8200094F821600020012E53
:1008B00006D084F820000225284670BD022070BDB5
:1008C000022684F82160A0632068066826F00106ED
:1008D00006602046FFF77EFDE06A00282068016878
:1008E00002D041F00E0106E021F004010160206811
:1008F000016841F00A0101602068016841F00101CE
:100900000160D9E770B5044600F04AFA0546601C5C
:1009100002D004480078044400F042FA401BA04290
:10092000FAD370BD200000202DE9F0470546264887
:100930000F460126017E01290FD001218146017653
:100940002868DFF888804CF25034022808D0A2468C
:100950002046FFF7B7FDA8B131E00220BDE8F087DF
:100960002046FFF7AFFD08BB0120FFF74BFD2046F7
:10097000FFF7A8FDD8F81010064621F00401C8F8CA
:1009800010101CE04FF0FF303860AC6811E02046DA
:10099000FFF74AFD5046FFF795FDD8F81010060006
:1009A00021F00201C8F8101001D03C6007E004F506
:1009B0008064D5E9020100EB8120A042E7D8002144
:1009C00089F818103046C9E73001002000200240A5
:1009D0000348016941F08001016100207047000077
:1009E000002002402DE9F05F07461C48884600249D
:1009F000017E15461E46012909D001218146017656
:100A00004CF2503A5046FFF75DFD18B122E002204B
:100A1000BDE8F09F012F02D0022F00D00427D3465B
:100A2000DFF83CA0220128463146FFF7CDFB81B21A
:100A300008EB4400FFF70AFD5846FFF743FDDAF8DC
:100A4000102022F00102CAF8102018B9641CE4B288
:100A5000BC42E7D3002289F81820D9E730010020F2
:100A600000200240064900200A69120607D5054AFF
:100A70004A60054A4A600969090600D501207047A5
:100A80000020024023016745AB89EFCD2DE9F043FB
:100A900000233E4F0F2573E001229A400A406DD09B
:100AA00023F00304E619D6F808809C074FEA147C6B
:100AB00005FA0CF909EA0804DFF8D480404502D1B0
:100AC0004FF0000816E0DFF8CC80404502D14FF02F
:100AD00001080FE0DFF8C080404502D14FF0020866
:100AE00008E0DFF8B880404502D14FF0030801E08C
:100AF0004FF0040808FA0CF8A04522D1284CD4F88D
:100B000000C02CEA020CC4F800C0241DD4F800C0B8
:100B10002CEA020CC4F800C0214C0C34D4F800C0FC
:100B20002CEA020CC4F800C0241FD4F800C02CEA40
:100B3000020CC4F800C0D6F808C02CEA090CC6F8AC
:100B400008C0FF2A01D8064601E000F104064FEA7A
:100B5000830401D9A4F12004D6F800C005FA04F8F2
:100B60002CEA080C4FF0040808FA04F84CEA080CC8
:100B7000C6F800C0C46824EA0204C46003F101039B
:100B800031FA03F288D1BDE8F08300000000014093
:100B900000080140000C0140001001400014014019
:100BA000000401402DE9F84FDFF8B8910024A9F1C5
:100BB000040B23460F2709F1040AABF1040EC9E028
:100BC0000125A5402A40AA427DD1674ED1F804C034
:100BD000ACEB0608B44532D014DCBCF1030F3AD0BC
:100BE00009DCBCF1000F2AD0BCF1010F1CD0BCF114
:100BF000020F31D11DE0BCF1110F17D0BCF1120F63
:100C00002AD119E0B8F5881F19D006DCB8F5803F65
:100C100015D0B8F5801F1FD111E0B8F5001F0ED018
:100C2000B8F5041F18D10AE0CB6815E0CB681B1D8E
:100C300012E0CB6808330FE0CB680C330CE08B6814
:100C40002BB1012B4FF0080303D0456104E00423CE
:100C500002E0056100E00023FF2A01D8064601E01A
:100C600000F104064FEA840501D9A5F12005D6F864
:100C7000008007FA05FC28EA0C0803FA05F548EAA3
:100C80000508C6F800804D68ED0062D5374DAE69A5
:100C900046F00106AE61AD6924F0030605F00105DA
:100CA0000095334D06EB050CDCF80850A607360F0F
:100CB00007FA06F825EA0805DFF8B880404503D1B1
:100CC0004FF0000817E044E0DFF8AC80404502D167
:100CD0004FF001080FE0DFF8A480404502D14FF04B
:100CE000020808E0DFF89880404502D14FF0030881
:100CF00001E04FF0040808FA06F848EA0508CCF8C5
:100D000008804D68D9F80060ED024D4601D51643C4
:100D100000E096432E604D68DAF80060AD0255465B
:100D200001D5164300E096432E604D68DBF8006065
:100D3000AD035D4601D5164300E096432E604D6835
:100D4000DEF80060ED03754601D5164300E09643DA
:100D50002E60641C0D682A46E5407FF431AFBDE883
:100D6000F88F00000804014000001110001002403C
:100D70000000014000080140000C0140001001404B
:100D800000140140C26821EA02030A4043EA02411A
:100D9000016170470AB1016170470904FBE7000077
:100DA00001488068704700002000002002488168E8
:100DB000027811448160704720000020074810B578
:100DC000016841F010010160032000F085F80F2058
:100DD00000F006F800F024F8002010BD00200240CA
:100DE00070B50D4D04464FF47A712878B1FBF0F0E0
:100DF0000A490968B1FBF0F000F0ECFA48B9102C90
:100E000007D200222146501E00F046F800206C60F8
:100E100070BD012070BD0000200000202C000020CB
:100E20000C4808B5816941F001018161816901F0D7
:100E300001010091C16941F08051C161C06900F0B8
:100E4000805000900448416821F0E06141F0007159
:100E5000416008BD001002400000014000280DDB89
:100E600000F01F02012191404009800000F1E020C4
:100E7000C0F88011BFF34F8FBFF36F8F704700280A
:100E800009DB00F01F02012191404009800000F1C0
:100E9000E020C0F800117047F0B40E4B1B680C4600
:100EA000C3F30223C3F10705042D00D90425191D3E
:100EB000072901D2002300E0DB1E012606FA05F116
:100EC000491E214099409E40761E16403143F0BC99
:100ED00001F0DDB80CED00E0064900F007020868FB
:100EE0004FF6FF03184040EA0220034A104308600F
:100EF000704700000CED00E00000FA052DE9F04716
:100F00000F46050061D0434E306800F00700B8423C
:100F100009D2306820F0070038433060306800F0B4
:100F20000700B84251D128683B4C810712D54007D1
:100F300003D5606840F4E06060602878000703D55E
:100F4000606840F4605060606068A96820F0F0005C
:100F5000084360602878C00728D06868012810D04E
:100F60002168022810D0890700292EDA616821F053
:100F7000030101436160FFF713FF804641F28839A6
:100F80000DE021688903EFE78901EDE7FFF708FF2E
:100F9000A0EB0801494502D90320BDE8F08760684D
:100FA000696800F00C00B0EB810FEFD1306800F001
:100FB0000700B8420BD9306820F007003843306092
:100FC000306800F00700B84201D00120E5E728783A
:100FD000400705D56068E96820F4E0600843606078
:100FE0002878000706D56068296920F4605040EA37
:100FF000C100606000F038F86168084AC1F303116D
:10100000515CC8400649086006480068FFF7E8FEE2
:101010000020C2E7002002400010024036220008F3
:101020002C0000202400002004480549006849687D
:10103000044AC1F30221515CC84070472C000020D3
:10104000001002404622000804480549006849682B
:10105000044AC1F3C221515CC84070472C000020F3
:1010600000100240462200080E4A51680E4801F066
:101070000C03042B11D0082B0FD10C48C1F3834370
:10108000C903C05C0AD55168084AC1F34041921EA9
:10109000515C054A5043B0FBF1F0704704494843A6
:1010A000704700000010024000127A00262200085B
:1010B00000093D002DE9F84F040070D02078C04DA4
:1010C000C00749D06868C0F38100012807D068686C
:1010D000C0F38100022809D16868C00306D52868DA
:1010E000800339D560680028E7D035E06068B0F546
:1010F000803F0BD010B1B0F5A02F11D0286820F49C
:1011000080302860286820F4802002E0286840F4BD
:1011100080302860606890B1FFF742FE06460AE022
:10112000286840F480202860F0E700BFFFF738FE11
:10113000801B642873D828688003F7D50CE0FFF77C
:101140002FFE064605E000BFFFF72AFE801B64283D
:10115000F0D828688003F7D420789A4E80074FF0A3
:1011600001094FF0000839D5686810F00C0F07D05E
:101170006868C0F38100022809D16868C00306D4FA
:101180002868800714D52069012808D110E020695B
:10119000B0B1C6F80090FFF703FE074605E00AE18C
:1011A000FFF7FEFDC01B0228C4D828688007F7D5CA
:1011B0002868616920F0F80040EAC10028600DE06D
:1011C000C6F80080FFF7ECFD074604E0FFF7E8FDF6
:1011D000C01B022823D828688007F7D4207800078E
:1011E0002CD57948A169D9B1C0F80090FFF7D8FD96
:1011F000074604E0FFF7D4FDC01B02280FD8686A39
:101200008007F7D571484FF4FA510068B0FBF1F050
:10121000009000BF0098411E0091FAD20EE080E0DD
:10122000C0F80080FFF7BCFD074604E0FFF7B8FDFB
:10123000C01B022875D8686A8007F7D42078400759
:1012400060D5E8690027C00008D4E86940F0805004
:10125000E861E869012700F0805000905C4801686F
:10126000C90513D40168834641F480710160FFF71A
:1012700097FD824606E000BFFFF792FDA0EB0A0053
:1012800064284ED8DBF80000C005F5D5E0680128D9
:101290000AD008B1052813D0286A20F0010028627E
:1012A000286A20F0040002E0286A40F00100286269
:1012B000E06841F2883B98B1FFF772FD82460BE08F
:1012C000286A40F004002862EEE700BFFFF768FDDF
:1012D000A0EB0A0159455AD8286A8007F6D50CE0D8
:1012E000FFF75EFD824605E0FFF75AFDA0EB0A011D
:1012F00059454CD8286A8007F6D41FB1E86920F018
:101300008050E861E06988B36968C1F3810102290E
:1013100044D00228C6F8608004D0FFF741FD04469F
:1013200038E034E0FFF73CFD074604E0FFF738FD06
:10133000C01B02282BD828688001F7D4206AB0F59A
:10134000803F05D16868A16820F4003008436860D8
:10135000D4E908010843696821F4741108436860FE
:10136000C6F86090FFF71CFD044606E025E000BFCC
:10137000FFF716FD001B022809D828688001F7D561
:101380001BE000BFFFF70CFD001B022802D9032061
:10139000BDE8F88F28688001F4D40EE00128F7D06A
:1013A0006868226A00F48031914204D1616A00F4D5
:1013B0007010884201D00120EAE70020E8E7000031
:1013C0000010024000004242800442422C000020F3
:1013D0000070004010B5401EB0F1807F01D30120A5
:1013E00010BD4FF0E02460610F21601700F04FFE48
:1013F0000020A06107202061002010BD38B5044600
:1014000090F84200202801D0022038BD51B14AB1E5
:101410000120206300206063204600F0AFFD216BB7
:10142000012901D0012038BD21680A68496800916E
:1014300021680C3151E8002F42F0100241E80023EE
:10144000002BF5D138BD00000268064883691B688F
:101450009A4205D18289521C828101220270C18088
:10146000704700000000002010B5040015D02420B3
:1014700084F841002068C16821F40051C160204611
:1014800000F076F90020606484F8410084F842009E
:1014900044F8300F6060207410BD012010BD70470B
:1014A000F8B5016804460868CA684B6910F00F0F68
:1014B0004FF0000559D003F0010602F4907737434E
:1014C00065D0C10705D0D10503D5616C41F001019C
:1014D0006164410705D5D90703D0616C41F0020171
:1014E0006164810705D5D90703D0616C41F004011F
:1014F0006164010707D502F02001314303D0616C1C
:1015000041F008016164616C00293AD0800604D57D
:10151000900602D5204600F073FC20684069616C9B
:10152000C0F38010090700D460B3204600F033FCFC
:1015300020684069400621D52068143050E8001F1B
:1015400021F0400140E80012002AF5D1E06BA8B17B
:101550006D494163E06BFFF74BF8002811D0E06B59
:10156000416B01B0BDE8F040084783060FD59306F4
:101570000DD52046BDE8F84000F042BC2046FFF7FC
:101580008EFFF8BD2046FFF78AFF6564F8BD266B25
:101590002023012E7CD1C6067AD5D60678D50868D8
:1015A0004868009048694FF00206400640D5E16B5C
:1015B000086840680004000CE8D0A28D8242E5D99A
:1015C000E085886920282DD020680C3050E8001F65
:1015D00021F4807140E80012002AF5D1206814300F
:1015E00050E8001F21F0010140E80012002AF5D167
:1015F0002068143050E8001F21F0400140E800123C
:10160000002AF5D184F84230256320680C3050E878
:10161000001F21F0100140E80012002AF5D1E06B14
:10162000FEF7C2FF6663A08DE18D401A81B22AE009
:10163000A08DE18D401A81B2E08D0028A6D000294E
:10164000A4D022680C3252E8000F20F4907042E8D7
:101650000007002FF5D12068143050E8002F22F049
:10166000010240E80027002FF5D184F842302563BD
:1016700020680C3050E8002F22F0100240E80023D0
:10168000002BF5D166632046FFF7DEFEF8BDFFE7CD
:1016900005062BD5150629D594F841002128F5D14A
:1016A000A068B0F5805F01D12069B0B1206A411C0B
:1016B0002162216800784860E08C401E0004000C24
:1016C000E084E3D12068C16821F08001C160206816
:1016D000C16841F04001C160D8E7206A0088C0F3CA
:1016E00008004860206A801C2062E5E74006CDD5EE
:1016F0005006CBD5CA68204622F04002CA6084F862
:10170000413000F0FFF8C1E7991C000870B50400F3
:1017100004D094F84100002510B106E0012070BD0E
:1017200084F84050204600F043F8242084F841001B
:101730002068C16821F40051C160204600F0C2FB5E
:101740002068016921F4904101612068416921F01C
:101750002A0141612068C16841F40051C16065649B
:10176000202084F8410084F842006563002070BDA9
:1017700010B5044600680B49884211D10A48C16976
:1017800021F48021C1614FF440610848FFF77EF9E0
:10179000E06BFEF779FFBDE810402720FFF75EBB46
:1017A00010BD00000048004000100240000C014045
:1017B00070B586B000250646009501950295039503
:1017C0000068224988423ED12149C86940F48020FE
:1017D000C861C86900F480200490886940F008005E
:1017E000886188691B4C00F008000490081500907F
:1017F000022001900320039069462046FFF7D2F9AA
:10180000E014CDE90005694620460295FFF7CAF9C4
:10181000124C1148C4E900058020C4E9025025613A
:101820006561A5612046E561FFF706F808B1FEF79E
:10183000E7FDF4630022114627206662FFF72CFBC8
:101840002720FFF71CFB06B070BD000000480040D9
:1018500000100240000C014030000240E80000206F
:10186000704770472DE9F843044690F841009846C8
:1018700016460D46202802D00220BDE8F88385B127
:101880007EB100206064212084F84100FFF788FACF
:10189000A6848146E684A0682027B0F5805F02D048
:1018A00003E00120E9E7206910B12E4600250EE093
:1018B00000260CE08021204600F0A8FBA8B9C6B1A4
:1018C00016F8010B21684860E08C401EE084E08C33
:1018D0004B464FF00002CDF800800028EAD14FF0CF
:1018E0004001204600F092FB40B184F84170032093
:1018F000C3E735F8020BC0F30800E3E784F8417052
:101900000020BAE7704700002DE9F04F9D4D8DB0E3
:101910002878002876D09C4C69782078884272D14B
:10192000667820463146FEF715FDA11911F8011C15
:101930008142F4D1A77880219448FFF723FA002F41
:1019400062D0DFF84CB242F20E7904F132064FF069
:10195000060A012F5DD0022F7ED0032F53D0042F13
:1019600050D1D4F80300592701BA2869A84681420A
:1019700073D1A4F10A0522212970E1796970C5F8B3
:101980000600207AA870607AE8706089012140BA68
:10199000A8805846FEF7C0FD4846401EFDD1296884
:1019A00002916A6803922889ADF810005846049B9A
:1019B000FEF7F4FD2078307005217170A078B070CA
:1019C0007148F7703230FEF7C5FC30716E4972789D
:1019D0004FF0FF333231D8F81800FFF743FF3221C0
:1019E0006948FEF730FC00F0DBF8BFF34F8F694821
:1019F0000168694A01F4E06111430160BFF34F8F50
:101A000000BFFDE76CE05DE04FF0FF3332465E491A
:101A100055E02146592731F8030FA04642BA2A81E2
:101A2000488840BA62F31F4028610B79120442EAE9
:101A300003224B791A436A61B4F80910820A49BA41
:101A40006981EA708A0A2A71890501D0521C2A71BB
:101A5000D1B2FEF761FD01E03DE090E008B14E2714
:101A600017E0494C0120A8700A3C11202070012188
:101A70005846FEF751FD4846401EFDD121680091B1
:101A8000626801922089ADF808005846029BFEF773
:101A900085FD98F80010317086F801A098F80200D2
:101AA000B070F77028793071374851463230FEF700
:101AB00051FC7071344972784FF0FF333231A869AC
:101AC000FFF7D0FE32213048FEF7BDFB0DB0BDE878
:101AD000F04F00F065B8A878012804D000F060F855
:101AE0000DB0BDE8F08FB4F80300298940BA61F366
:101AF0001F4080466779002007A904E022189279E8
:101B00000A54401CC0B2B842F8D33A4601A9404634
:101B1000FEF718FD3A4601A907A8FEF768FB60B377
:101B20003A4607A94046FEF71EFD3A4601A940463F
:101B3000FEF708FD3A4601A907A8FEF758FBE0B1F9
:101B40004E202178317086F801A0A278B270F07032
:101B5000607930710C4851463230FEF7FBFB7071F2
:101B6000094972784FF0FF333231A869FFF77AFEE6
:101B700032210548FEF767FBB0E75920E1E74E2721
:101B800018E70000000000203A0000200008014093
:101B9000007C00080CED00E00400FA05FEE7000000
:101BA00010B5054C32220349A069FFF727FC00203D
:101BB000207010BD3A0000200000002030B585B034
:101BC000002418480094019402940394816941F020
:101BD00020018161816901F020010491816941F056
:101BE00004018161816901F004010491816941F07E
:101BF0000801816180690C4D00F00800049000220A
:101C000080212846FFF7C6F8802000900120CDE90A
:101C100001040220039069462846FEF7C3FF05B081
:101C200030BD00000010024000080140FEE7FEE762
:101C300070477047FFF7BAB830B58FB028216846B3
:101C4000FEF723FB14210AA8FEF71FFB012108045D
:101C5000CDE900100024029402250491CDE907503B
:101C60004FF4E01009906846FFF724FA08B172B605
:101C7000FEE70F20CDE90A054FF48060CDE90C4066
:101C800002210AA80E94FFF739F9002801D072B694
:101C9000FEE70FB030BD704710B5406A0021C18526
:101CA000C184FFF7FCFB10BD70B5446A2068406931
:101CB00094F84110C0F3C0100025212904D118B1B7
:101CC000E584204600F08EF82068406994F84210C0
:101CD000C0F38010222904D118B1E585204600F018
:101CE0005AF8606C40F0100060642046FFF7D7FBA4
:101CF00070BD10B50146406A096809684FF00002DE
:101D000089062ED4C28501680C3151E8003F23F4C6
:101D1000807341E80034002CF5D10168143151E89A
:101D2000003F23F0010341E80034002CF5D10168A5
:101D3000143151E8003F23F0400341E80034002C07
:101D4000F5D1202180F84210016B012909D10168E9
:101D50000C3151E8003F23F0100341E80034002C1F
:101D6000F5D14263016B012902D0FFF779FD10BD67
:101D7000818DFFF769FB10BD10B5406A01214163F9
:101D8000016B012902D0FFF76CFD10BD818D490860
:101D9000FFF75AFB10BD01680C3151E8002F22F407
:101DA000907241E80023002BF5D10168143151E80D
:101DB000002F22F0010241E80023002BF5D1016B36
:101DC000012909D101680C3151E8002F22F01002DD
:101DD00041E80023002BF5D1202180F8421000219A
:101DE0000163704701680C3151E8002F22F0C002F6
:101DF00041E80023002BF5D1202180F841107047E5
:101E000008B590F84210222901D0022008BD82684E
:101E10004FF480539A4201D1016921B1816A9A42FB
:101E20001BD04AB10AE00268816A5268C2F3080214
:101E30000A80816A891C08E0026972B102685268EE
:101E400002F07F020A70816A491C8162C18D491EBD
:101E50000904090CC18503D01BE002685268F1E750
:101E60000168CA6822F02002CA600168CA6822F4C8
:101E70008072CA6001684A6922F001024A61202129
:101E800080F8421000214163026B012A03D0FFF762
:101E9000E7FC002008BD016301680C3151E8002F08
:101EA00022F0100241E80023002BF5D101680A68F6
:101EB000D20602D50A6849680091818DFFF7C4FAFD
:101EC000E7E7000070B5044600680169E26821F4A4
:101ED0004051114301612169A068084361690843C9
:101EE0002168CA6841F20C639A430243CA602068C1
:101EF0004169A26921F44071114341611E49206882
:101F0000884202D1FFF7A0F801E0FFF78DF800EB5F
:101F1000C00101EB0012606864218000B2FBF0F3A5
:101F2000B3FBF1F36FF018067343B2FBF0F5B2FBAD
:101F3000F0F605EB8305322303EB0515B5FBF1F550
:101F4000B6FBF1F605F0F00505EB0615B2FBF0F671
:101F5000B2FBF0F0B0FBF1F06FF01802504306EB6B
:101F6000800003EB0010B0FBF1F0216800F00F00DF
:101F70002844886070BD00000038014038B5816297
:101F800004468285002013466064222284F84220A1
:101F9000E56B1B4AAA62E56B1A4AEA62E56B1A4ACC
:101FA0002A63E26B50630A462168E06B091DFEF765
:101FB00071FC2068016840680090206948B1206881
:101FC0000C3050E8001F41F4807140E80012002AF4
:101FD000F5D12068143050E8001F41F0010140E8BD
:101FE0000012002AF5D12068143050E8001F41F09B
:101FF000400140E80012002AF5D1002038BD000061
:10200000F31C0008791D0008A91C00082DE9F843FD
:10201000984617460D460446089E24E0701C22D0C0
:10202000FEF7BEFEA0EB0800B0421AD8CEB1206881
:10203000C168490717D5802D15D0402D13D00168F0
:10204000C94309070FD40168002540680090204665
:10205000FFF7A1FE0820606484F840500120BDE82D
:10206000F8830320FBE72068006835EA000004D00D
:102070000020B842D2D00020F1E70120F9E70000AB
:102080000148FFF70DBA0000A0000020FEE7090795
:10209000090E002804DB00F1E02080F800147047EE
:1020A00000F00F0000F1E02080F8141D70470000E0
:1020B0000EB5FEF783FEFFF7BFFDFFF77FFD50482B
:1020C000416941F0010141614069002200F00100D5
:1020D000009011460D20FEF7DFFE0D20FEF7CFFE2B
:1020E00049484849002501604FF41651C0E90115DF
:1020F0000C21C560C0E904518561C561FFF706FB8D
:1021000008B172B6FEE7414F012280213846FEF742
:1021100041FE404E3E493046FEF722FA3C4C2078C4
:1021200011282DD0222856D001213046FEF7F4F98F
:102130004EF65E20401EFDD1112020706570A57006
:10214000E570A580C4F8065021680091626801928C
:102150002089ADF808003046029BFEF71FFA42F2D4
:102160000E70401EFDD1BFF34F8F2B4801682B4AE4
:1021700001F4E06111430160BFF34F8F00BFFDE741
:10218000002280213846FEF705FE4FF4FA742046FF
:10219000FEF7B8FB012280213846FEF7FBFD204602
:1021A000FEF7B0FB002280213846FEF7F3FD204603
:1021B000FEF7A8FB012280213846FEF7EBFD204602
:1021C000FEF7A0FB002280213846FEF7E3FD0E4813
:1021D000FEF7D8F80CE072B60F48D4F80610001FCE
:1021E0000160086880F30888486840F00100804773
:1021F0000B4C2088401C2080FFF786FBF9E700008D
:102200000010024000480040A000002000080140EB
:1022100030000020007C00080CED00E00400FA050E
:102220001C000020010202030405060708090A0B2E
:102230000C0D0E0F10100000000000000000010245
:10224000030406070809000000000102030400005F
:102250007022000800000020300000002801000863
:10226000A022000830000020800700004401000880
:10227000000100000000000000000000000000005D
:10228000000000000000000000000000000000004E
:1022900001000000100000000000000000127A00A1
:04000005080000ED02
:00000001FF
